{
  "contractName": "Elecation",
  "abi": [
    {
      "constant": true,
      "inputs": [
        {
          "name": "",
          "type": "uint256"
        }
      ],
      "name": "person",
      "outputs": [
        {
          "name": "id",
          "type": "uint256"
        },
        {
          "name": "name",
          "type": "string"
        },
        {
          "name": "votecount",
          "type": "uint256"
        },
        {
          "name": "col",
          "type": "uint256"
        }
      ],
      "payable": false,
      "stateMutability": "view",
      "type": "function"
    },
    {
      "constant": false,
      "inputs": [],
      "name": "renounceOwnership",
      "outputs": [],
      "payable": false,
      "stateMutability": "nonpayable",
      "type": "function"
    },
    {
      "constant": true,
      "inputs": [
        {
          "name": "",
          "type": "uint256"
        }
      ],
      "name": "list",
      "outputs": [
        {
          "name": "id",
          "type": "uint256"
        },
        {
          "name": "name",
          "type": "string"
        },
        {
          "name": "votecount",
          "type": "uint256"
        }
      ],
      "payable": false,
      "stateMutability": "view",
      "type": "function"
    },
    {
      "constant": true,
      "inputs": [],
      "name": "owner",
      "outputs": [
        {
          "name": "",
          "type": "address"
        }
      ],
      "payable": false,
      "stateMutability": "view",
      "type": "function"
    },
    {
      "constant": true,
      "inputs": [],
      "name": "isOwner",
      "outputs": [
        {
          "name": "",
          "type": "bool"
        }
      ],
      "payable": false,
      "stateMutability": "view",
      "type": "function"
    },
    {
      "constant": true,
      "inputs": [
        {
          "name": "",
          "type": "address"
        }
      ],
      "name": "voters",
      "outputs": [
        {
          "name": "",
          "type": "bool"
        }
      ],
      "payable": false,
      "stateMutability": "view",
      "type": "function"
    },
    {
      "constant": false,
      "inputs": [
        {
          "name": "newOwner",
          "type": "address"
        }
      ],
      "name": "transferOwnership",
      "outputs": [],
      "payable": false,
      "stateMutability": "nonpayable",
      "type": "function"
    },
    {
      "anonymous": false,
      "inputs": [],
      "name": "vote",
      "type": "event"
    },
    {
      "anonymous": false,
      "inputs": [
        {
          "indexed": true,
          "name": "previousOwner",
          "type": "address"
        },
        {
          "indexed": true,
          "name": "newOwner",
          "type": "address"
        }
      ],
      "name": "OwnershipTransferred",
      "type": "event"
    },
    {
      "constant": false,
      "inputs": [
        {
          "name": "add",
          "type": "address[]"
        },
        {
          "name": "col",
          "type": "uint256[]"
        }
      ],
      "name": "addStudents",
      "outputs": [],
      "payable": false,
      "stateMutability": "nonpayable",
      "type": "function"
    },
    {
      "constant": false,
      "inputs": [
        {
          "name": "_name",
          "type": "string"
        },
        {
          "name": "_col",
          "type": "uint256"
        }
      ],
      "name": "_createCandidatePerson",
      "outputs": [],
      "payable": false,
      "stateMutability": "nonpayable",
      "type": "function"
    },
    {
      "constant": false,
      "inputs": [
        {
          "name": "_name",
          "type": "string"
        }
      ],
      "name": "_createCandidateList",
      "outputs": [],
      "payable": false,
      "stateMutability": "nonpayable",
      "type": "function"
    },
    {
      "constant": false,
      "inputs": [
        {
          "name": "_candidateId",
          "type": "uint256"
        }
      ],
      "name": "_voting",
      "outputs": [],
      "payable": false,
      "stateMutability": "nonpayable",
      "type": "function"
    },
    {
      "constant": false,
      "inputs": [
        {
          "name": "_candidateId",
          "type": "uint256"
        }
      ],
      "name": "getCount",
      "outputs": [
        {
          "name": "",
          "type": "uint256"
        }
      ],
      "payable": false,
      "stateMutability": "nonpayable",
      "type": "function"
    }
  ],
  "bytecode": "0x6080604052336000806101000a81548173ffffffffffffffffffffffffffffffffffffffff021916908373ffffffffffffffffffffffffffffffffffffffff1602179055506000809054906101000a900473ffffffffffffffffffffffffffffffffffffffff1673ffffffffffffffffffffffffffffffffffffffff16600073ffffffffffffffffffffffffffffffffffffffff167f8be0079c531659141344cd1fd0a4f28419497f9722a3daafe3b4186f6b6457e060405160405180910390a3611230806100cf6000396000f3fe608060405234801561001057600080fd5b50600436106100d1576000357c010000000000000000000000000000000000000000000000000000000090048063ae16abfa1161008e578063ae16abfa14610319578063bdcf97d3146103d4578063c235391814610402578063ce38766814610444578063e80653cf14610590578063f2fde38b14610655576100d1565b8063092a1820146100d6578063715018a61461019257806380c9419e1461019c5780638da5cb5b146102515780638f32d59b1461029b578063a3ec138d146102bd575b600080fd5b610102600480360360208110156100ec57600080fd5b8101908080359060200190929190505050610699565b6040518085815260200180602001848152602001838152602001828103825285818151815260200191508051906020019080838360005b83811015610154578082015181840152602081019050610139565b50505050905090810190601f1680156101815780820380516001836020036101000a031916815260200191505b509550505050505060405180910390f35b61019a610770565b005b6101c8600480360360208110156101b257600080fd5b81019080803590602001909291905050506108ab565b6040518084815260200180602001838152602001828103825284818151815260200191508051906020019080838360005b838110156102145780820151818401526020810190506101f9565b50505050905090810190601f1680156102415780820380516001836020036101000a031916815260200191505b5094505050505060405180910390f35b61025961097c565b604051808273ffffffffffffffffffffffffffffffffffffffff1673ffffffffffffffffffffffffffffffffffffffff16815260200191505060405180910390f35b6102a36109a5565b604051808215151515815260200191505060405180910390f35b6102ff600480360360208110156102d357600080fd5b81019080803573ffffffffffffffffffffffffffffffffffffffff1690602001909291905050506109fc565b604051808215151515815260200191505060405180910390f35b6103d26004803603602081101561032f57600080fd5b810190808035906020019064010000000081111561034c57600080fd5b82018360208201111561035e57600080fd5b8035906020019184600183028401116401000000008311171561038057600080fd5b91908080601f016020809104026020016040519081016040528093929190818152602001838380828437600081840152601f19601f820116905080830192505050505050509192919290505050610a1c565b005b610400600480360360208110156103ea57600080fd5b8101908080359060200190929190505050610b43565b005b61042e6004803603602081101561041857600080fd5b8101908080359060200190929190505050610cec565b6040518082815260200191505060405180910390f35b61058e6004803603604081101561045a57600080fd5b810190808035906020019064010000000081111561047757600080fd5b82018360208201111561048957600080fd5b803590602001918460208302840111640100000000831117156104ab57600080fd5b919080806020026020016040519081016040528093929190818152602001838360200280828437600081840152601f19601f8201169050808301925050505050505091929192908035906020019064010000000081111561050b57600080fd5b82018360208201111561051d57600080fd5b8035906020019184602083028401116401000000008311171561053f57600080fd5b919080806020026020016040519081016040528093929190818152602001838360200280828437600081840152601f19601f820116905080830192505050505050509192919290505050610d16565b005b610653600480360360408110156105a657600080fd5b81019080803590602001906401000000008111156105c357600080fd5b8201836020820111156105d557600080fd5b803590602001918460018302840111640100000000831117156105f757600080fd5b91908080601f016020809104026020016040519081016040528093929190818152602001838380828437600081840152601f19601f82011690508083019250505050505050919291929080359060200190929190505050610da9565b005b6106976004803603602081101561066b57600080fd5b81019080803573ffffffffffffffffffffffffffffffffffffffff169060200190929190505050610ee1565b005b6001818154811015156106a857fe5b9060005260206000209060040201600091509050806000015490806001018054600181600116156101000203166002900480601f01602080910402602001604051908101604052809291908181526020018280546001816001161561010002031660029004801561075a5780601f1061072f5761010080835404028352916020019161075a565b820191906000526020600020905b81548152906001019060200180831161073d57829003601f168201915b5050505050908060020154908060030154905084565b6107786109a5565b15156107ec576040517f08c379a00000000000000000000000000000000000000000000000000000000081526004018080602001828103825260208152602001807f4f776e61626c653a2063616c6c6572206973206e6f7420746865206f776e657281525060200191505060405180910390fd5b600073ffffffffffffffffffffffffffffffffffffffff166000809054906101000a900473ffffffffffffffffffffffffffffffffffffffff1673ffffffffffffffffffffffffffffffffffffffff167f8be0079c531659141344cd1fd0a4f28419497f9722a3daafe3b4186f6b6457e060405160405180910390a360008060006101000a81548173ffffffffffffffffffffffffffffffffffffffff021916908373ffffffffffffffffffffffffffffffffffffffff160217905550565b6002818154811015156108ba57fe5b9060005260206000209060030201600091509050806000015490806001018054600181600116156101000203166002900480601f01602080910402602001604051908101604052809291908181526020018280546001816001161561010002031660029004801561096c5780601f106109415761010080835404028352916020019161096c565b820191906000526020600020905b81548152906001019060200180831161094f57829003601f168201915b5050505050908060020154905083565b60008060009054906101000a900473ffffffffffffffffffffffffffffffffffffffff16905090565b60008060009054906101000a900473ffffffffffffffffffffffffffffffffffffffff1673ffffffffffffffffffffffffffffffffffffffff163373ffffffffffffffffffffffffffffffffffffffff1614905090565b60046020528060005260406000206000915054906101000a900460ff1681565b610a246109a5565b1515610a98576040517f08c379a00000000000000000000000000000000000000000000000000000000081526004018080602001828103825260208152602001807f4f776e61626c653a2063616c6c6572206973206e6f7420746865206f776e657281525060200191505060405180910390fd5b6000600260606040519081016040528060008152602001848152602001600081525090806001815401808255809150509060018203906000526020600020906003020160009091929091909150600082015181600001556020820151816001019080519060200190610b0b929190611139565b50604082015181600201555050905080600282815481101515610b2a57fe5b9060005260206000209060030201600001819055505050565b600460003373ffffffffffffffffffffffffffffffffffffffff1673ffffffffffffffffffffffffffffffffffffffff16815260200190815260200160002060009054906101000a900460ff16151515610b9c57600080fd5b600181815481101515610bab57fe5b906000526020600020906004020160030154600360003373ffffffffffffffffffffffffffffffffffffffff1673ffffffffffffffffffffffffffffffffffffffff16815260200190815260200160002054141515610c0957600080fd5b6001600460003373ffffffffffffffffffffffffffffffffffffffff1673ffffffffffffffffffffffffffffffffffffffff16815260200190815260200160002060006101000a81548160ff021916908315150217905550610c8b60016005600084815260200190815260200160002060020154610f6990919063ffffffff16565b6005600083815260200190815260200160002060020181905550610ccf60016006600084815260200190815260200160002060020154610f6990919063ffffffff16565b600660008381526020019081526020016000206002018190555050565b6000600182815481101515610cfd57fe5b9060005260206000209060040201600201549050919050565b60008090505b8251811015610da4578181815181101515610d3357fe5b90602001906020020151600360008584815181101515610d4f57fe5b9060200190602002015173ffffffffffffffffffffffffffffffffffffffff1673ffffffffffffffffffffffffffffffffffffffff168152602001908152602001600020819055508080600101915050610d1c565b505050565b610db16109a5565b1515610e25576040517f08c379a00000000000000000000000000000000000000000000000000000000081526004018080602001828103825260208152602001807f4f776e61626c653a2063616c6c6572206973206e6f7420746865206f776e657281525060200191505060405180910390fd5b6000600160806040519081016040528060008152602001858152602001600081526020018481525090806001815401808255809150509060018203906000526020600020906004020160009091929091909150600082015181600001556020820151816001019080519060200190610e9e929190611139565b5060408201518160020155606082015181600301555050905080600182815481101515610ec757fe5b906000526020600020906004020160000181905550505050565b610ee96109a5565b1515610f5d576040517f08c379a00000000000000000000000000000000000000000000000000000000081526004018080602001828103825260208152602001807f4f776e61626c653a2063616c6c6572206973206e6f7420746865206f776e657281525060200191505060405180910390fd5b610f6681610ff3565b50565b6000808284019050838110151515610fe9576040517f08c379a000000000000000000000000000000000000000000000000000000000815260040180806020018281038252601b8152602001807f536166654d6174683a206164646974696f6e206f766572666c6f77000000000081525060200191505060405180910390fd5b8091505092915050565b600073ffffffffffffffffffffffffffffffffffffffff168173ffffffffffffffffffffffffffffffffffffffff161415151561107b576040517f08c379a00000000000000000000000000000000000000000000000000000000081526004018080602001828103825260268152602001806111df6026913960400191505060405180910390fd5b8073ffffffffffffffffffffffffffffffffffffffff166000809054906101000a900473ffffffffffffffffffffffffffffffffffffffff1673ffffffffffffffffffffffffffffffffffffffff167f8be0079c531659141344cd1fd0a4f28419497f9722a3daafe3b4186f6b6457e060405160405180910390a3806000806101000a81548173ffffffffffffffffffffffffffffffffffffffff021916908373ffffffffffffffffffffffffffffffffffffffff16021790555050565b828054600181600116156101000203166002900490600052602060002090601f016020900481019282601f1061117a57805160ff19168380011785556111a8565b828001600101855582156111a8579182015b828111156111a757825182559160200191906001019061118c565b5b5090506111b591906111b9565b5090565b6111db91905b808211156111d75760008160009055506001016111bf565b5090565b9056fe4f776e61626c653a206e6577206f776e657220697320746865207a65726f2061646472657373a165627a7a7230582003fb8e1676a17d77be7f9e7d04e937acc8891d334b97cf70e75503ef04b092a30029",
  "source": "pragma solidity ^0.5.2;\r\n\r\nimport \"openzeppelin-solidity/contracts/ownership/Ownable.sol\";\r\n\r\nimport \"openzeppelin-solidity/contracts/math/SafeMath.sol\";\r\n\r\n\r\ncontract Elecation is Ownable {\r\n    event vote();\r\n    using SafeMath for uint256;\r\n //uint public candidatesCountPerson;\r\n //uint public candidatesCountList;\r\nstruct candidatePerson{\r\n   uint id;\r\n   string name;\r\n   uint votecount;  \r\n   uint col;\r\n}\r\nstruct candidateList{\r\n   uint id;\r\n   string name;\r\n   uint votecount;  \r\n}\r\ncandidatePerson[] public person;\r\ncandidateList[] public list;\r\n//accounts that have voted\r\n// list of uni students\r\nmapping(address => uint) studentsAdd;\r\nmapping (address => bool) public voters;\r\n//display result for each candidate\r\nmapping (uint => candidatePerson) candidatePersonCount;\r\nmapping (uint => candidateList) candidateListCount;\r\n\r\nfunction addStudents(address[] memory  add, uint[] memory col) public {\r\n\r\n    for(uint i= 0; i < add.length; i++ ) {\r\n        studentsAdd[add[i]] = col[i];\r\n    }\r\n}\r\n\r\nfunction _createCandidatePerson( string memory  _name, uint _col) public onlyOwner{\r\n uint id =  person.push(candidatePerson(0,_name, 0 , _col));\r\n person[id].id = id;\r\n}\r\nfunction _createCandidateList(string memory _name) public onlyOwner{\r\n  uint id = list.push(candidateList(0,_name,0));\r\n  list[id].id = id; \r\n}\r\nfunction _voting(uint _candidateId)public{\r\n    \r\nrequire(!voters[msg.sender]); //check if user have voted before\r\n\r\nrequire(studentsAdd[msg.sender] == person[_candidateId].col); // check student col if it equal to candidate col\r\n\r\n// require to valid candidate(person)\r\nvoters[msg.sender] = true; //user have vote\r\n//*******Q-L\r\ncandidatePersonCount[_candidateId].votecount= candidatePersonCount[_candidateId].votecount.add(1);\r\ncandidateListCount[_candidateId].votecount= candidateListCount[_candidateId].votecount.add(1);\r\n}\r\n\r\n\r\nfunction getCount(uint _candidateId) public returns (uint) {\r\n    return person[_candidateId].votecount;\r\n}\r\n\r\n}",
  "sourcePath": "C:/Users/ayaal/Desktop/test/contracts/Elecation.sol",
  "compiler": {
    "name": "solc",
    "version": "0.5.2+commit.1df8f40c.Emscripten.clang"
  },
  "schemaVersion": "3.0.16",
  "updatedAt": "2019-10-20T12:49:10.549Z",
  "devdoc": {
    "methods": {
      "isOwner()": {
        "details": "Returns true if the caller is the current owner."
      },
      "owner()": {
        "details": "Returns the address of the current owner."
      },
      "renounceOwnership()": {
        "details": "Leaves the contract without owner. It will not be possible to call `onlyOwner` functions anymore. Can only be called by the current owner.     * > Note: Renouncing ownership will leave the contract without an owner, thereby removing any functionality that is only available to the owner."
      },
      "transferOwnership(address)": {
        "details": "Transfers ownership of the contract to a new account (`newOwner`). Can only be called by the current owner."
      }
    }
  },
  "userdoc": {
    "methods": {}
  }
}